{
  "_format": "hh-sol-artifact-1",
  "contractName": "LicenseManager",
  "sourceName": "contracts/LicenseManager.sol",
  "abi": [
    {
      "inputs": [
        {
          "internalType": "address",
          "name": "_token",
          "type": "address"
        },
        {
          "internalType": "address",
          "name": "_registry",
          "type": "address"
        },
        {
          "internalType": "uint256",
          "name": "_platformFee",
          "type": "uint256"
        }
      ],
      "stateMutability": "nonpayable",
      "type": "constructor"
    },
    {
      "anonymous": false,
      "inputs": [
        {
          "indexed": true,
          "internalType": "bytes32",
          "name": "licenseId",
          "type": "bytes32"
        },
        {
          "indexed": true,
          "internalType": "address",
          "name": "licensee",
          "type": "address"
        },
        {
          "indexed": false,
          "internalType": "string",
          "name": "datasetCid",
          "type": "string"
        },
        {
          "indexed": false,
          "internalType": "string",
          "name": "name",
          "type": "string"
        },
        {
          "indexed": false,
          "internalType": "string",
          "name": "description",
          "type": "string"
        },
        {
          "indexed": false,
          "internalType": "uint256",
          "name": "expirationTimestamp",
          "type": "uint256"
        }
      ],
      "name": "LicenseGranted",
      "type": "event"
    },
    {
      "anonymous": false,
      "inputs": [
        {
          "indexed": true,
          "internalType": "bytes32",
          "name": "licenseId",
          "type": "bytes32"
        },
        {
          "indexed": false,
          "internalType": "uint256",
          "name": "newExpirationTimestamp",
          "type": "uint256"
        }
      ],
      "name": "LicenseRenewed",
      "type": "event"
    },
    {
      "anonymous": false,
      "inputs": [
        {
          "indexed": true,
          "internalType": "bytes32",
          "name": "licenseId",
          "type": "bytes32"
        }
      ],
      "name": "LicenseRevoked",
      "type": "event"
    },
    {
      "anonymous": false,
      "inputs": [
        {
          "indexed": false,
          "internalType": "address",
          "name": "account",
          "type": "address"
        }
      ],
      "name": "Paused",
      "type": "event"
    },
    {
      "anonymous": false,
      "inputs": [
        {
          "indexed": false,
          "internalType": "uint256",
          "name": "newFee",
          "type": "uint256"
        }
      ],
      "name": "PlatformFeeUpdated",
      "type": "event"
    },
    {
      "anonymous": false,
      "inputs": [
        {
          "indexed": true,
          "internalType": "bytes32",
          "name": "role",
          "type": "bytes32"
        },
        {
          "indexed": true,
          "internalType": "bytes32",
          "name": "previousAdminRole",
          "type": "bytes32"
        },
        {
          "indexed": true,
          "internalType": "bytes32",
          "name": "newAdminRole",
          "type": "bytes32"
        }
      ],
      "name": "RoleAdminChanged",
      "type": "event"
    },
    {
      "anonymous": false,
      "inputs": [
        {
          "indexed": true,
          "internalType": "bytes32",
          "name": "role",
          "type": "bytes32"
        },
        {
          "indexed": true,
          "internalType": "address",
          "name": "account",
          "type": "address"
        },
        {
          "indexed": true,
          "internalType": "address",
          "name": "sender",
          "type": "address"
        }
      ],
      "name": "RoleGranted",
      "type": "event"
    },
    {
      "anonymous": false,
      "inputs": [
        {
          "indexed": true,
          "internalType": "bytes32",
          "name": "role",
          "type": "bytes32"
        },
        {
          "indexed": true,
          "internalType": "address",
          "name": "account",
          "type": "address"
        },
        {
          "indexed": true,
          "internalType": "address",
          "name": "sender",
          "type": "address"
        }
      ],
      "name": "RoleRevoked",
      "type": "event"
    },
    {
      "anonymous": false,
      "inputs": [
        {
          "indexed": true,
          "internalType": "address",
          "name": "user",
          "type": "address"
        },
        {
          "indexed": false,
          "internalType": "uint256",
          "name": "amount",
          "type": "uint256"
        }
      ],
      "name": "TokenApprovalChecked",
      "type": "event"
    },
    {
      "anonymous": false,
      "inputs": [
        {
          "indexed": true,
          "internalType": "address",
          "name": "buyer",
          "type": "address"
        },
        {
          "indexed": false,
          "internalType": "uint256",
          "name": "hbarAmount",
          "type": "uint256"
        },
        {
          "indexed": false,
          "internalType": "uint256",
          "name": "tokenAmount",
          "type": "uint256"
        }
      ],
      "name": "TokensPurchased",
      "type": "event"
    },
    {
      "anonymous": false,
      "inputs": [
        {
          "indexed": false,
          "internalType": "address",
          "name": "account",
          "type": "address"
        }
      ],
      "name": "Unpaused",
      "type": "event"
    },
    {
      "inputs": [],
      "name": "ADMIN_ROLE",
      "outputs": [
        {
          "internalType": "bytes32",
          "name": "",
          "type": "bytes32"
        }
      ],
      "stateMutability": "view",
      "type": "function"
    },
    {
      "inputs": [],
      "name": "COMPLIANCE_ROLE",
      "outputs": [
        {
          "internalType": "bytes32",
          "name": "",
          "type": "bytes32"
        }
      ],
      "stateMutability": "view",
      "type": "function"
    },
    {
      "inputs": [],
      "name": "DEFAULT_ADMIN_ROLE",
      "outputs": [
        {
          "internalType": "bytes32",
          "name": "",
          "type": "bytes32"
        }
      ],
      "stateMutability": "view",
      "type": "function"
    },
    {
      "inputs": [],
      "name": "EXCHANGE_RATE",
      "outputs": [
        {
          "internalType": "uint256",
          "name": "",
          "type": "uint256"
        }
      ],
      "stateMutability": "view",
      "type": "function"
    },
    {
      "inputs": [],
      "name": "GAS_LIMIT",
      "outputs": [
        {
          "internalType": "uint256",
          "name": "",
          "type": "uint256"
        }
      ],
      "stateMutability": "view",
      "type": "function"
    },
    {
      "inputs": [],
      "name": "HBAR_DECIMALS",
      "outputs": [
        {
          "internalType": "uint256",
          "name": "",
          "type": "uint256"
        }
      ],
      "stateMutability": "view",
      "type": "function"
    },
    {
      "inputs": [],
      "name": "TOKEN_DECIMALS",
      "outputs": [
        {
          "internalType": "uint256",
          "name": "",
          "type": "uint256"
        }
      ],
      "stateMutability": "view",
      "type": "function"
    },
    {
      "inputs": [
        {
          "internalType": "uint256",
          "name": "tokenAmount",
          "type": "uint256"
        }
      ],
      "name": "buyTokens",
      "outputs": [],
      "stateMutability": "payable",
      "type": "function"
    },
    {
      "inputs": [
        {
          "internalType": "uint256",
          "name": "amount",
          "type": "uint256"
        }
      ],
      "name": "checkAndApproveTokenAllowance",
      "outputs": [],
      "stateMutability": "nonpayable",
      "type": "function"
    },
    {
      "inputs": [
        {
          "internalType": "bytes32",
          "name": "role",
          "type": "bytes32"
        }
      ],
      "name": "getRoleAdmin",
      "outputs": [
        {
          "internalType": "bytes32",
          "name": "",
          "type": "bytes32"
        }
      ],
      "stateMutability": "view",
      "type": "function"
    },
    {
      "inputs": [
        {
          "internalType": "address",
          "name": "user",
          "type": "address"
        }
      ],
      "name": "getUserLicenses",
      "outputs": [
        {
          "internalType": "bytes32[]",
          "name": "",
          "type": "bytes32[]"
        }
      ],
      "stateMutability": "view",
      "type": "function"
    },
    {
      "inputs": [
        {
          "internalType": "bytes32",
          "name": "role",
          "type": "bytes32"
        },
        {
          "internalType": "address",
          "name": "account",
          "type": "address"
        }
      ],
      "name": "grantRole",
      "outputs": [],
      "stateMutability": "nonpayable",
      "type": "function"
    },
    {
      "inputs": [
        {
          "internalType": "bytes32",
          "name": "role",
          "type": "bytes32"
        },
        {
          "internalType": "address",
          "name": "account",
          "type": "address"
        }
      ],
      "name": "hasRole",
      "outputs": [
        {
          "internalType": "bool",
          "name": "",
          "type": "bool"
        }
      ],
      "stateMutability": "view",
      "type": "function"
    },
    {
      "inputs": [
        {
          "internalType": "bytes32",
          "name": "licenseId",
          "type": "bytes32"
        }
      ],
      "name": "isValidLicense",
      "outputs": [
        {
          "internalType": "bool",
          "name": "",
          "type": "bool"
        }
      ],
      "stateMutability": "view",
      "type": "function"
    },
    {
      "inputs": [
        {
          "internalType": "bytes32",
          "name": "",
          "type": "bytes32"
        }
      ],
      "name": "licenses",
      "outputs": [
        {
          "internalType": "address",
          "name": "licensee",
          "type": "address"
        },
        {
          "internalType": "string",
          "name": "datasetCid",
          "type": "string"
        },
        {
          "internalType": "uint256",
          "name": "purchaseTimestamp",
          "type": "uint256"
        },
        {
          "internalType": "uint256",
          "name": "expirationTimestamp",
          "type": "uint256"
        },
        {
          "internalType": "bool",
          "name": "isActive",
          "type": "bool"
        }
      ],
      "stateMutability": "view",
      "type": "function"
    },
    {
      "inputs": [],
      "name": "pause",
      "outputs": [],
      "stateMutability": "nonpayable",
      "type": "function"
    },
    {
      "inputs": [],
      "name": "paused",
      "outputs": [
        {
          "internalType": "bool",
          "name": "",
          "type": "bool"
        }
      ],
      "stateMutability": "view",
      "type": "function"
    },
    {
      "inputs": [],
      "name": "platformFee",
      "outputs": [
        {
          "internalType": "uint256",
          "name": "",
          "type": "uint256"
        }
      ],
      "stateMutability": "view",
      "type": "function"
    },
    {
      "inputs": [
        {
          "internalType": "string",
          "name": "datasetCid",
          "type": "string"
        }
      ],
      "name": "purchaseLicense",
      "outputs": [],
      "stateMutability": "payable",
      "type": "function"
    },
    {
      "inputs": [],
      "name": "registry",
      "outputs": [
        {
          "internalType": "contract DatasetRegistry",
          "name": "",
          "type": "address"
        }
      ],
      "stateMutability": "view",
      "type": "function"
    },
    {
      "inputs": [
        {
          "internalType": "bytes32",
          "name": "role",
          "type": "bytes32"
        },
        {
          "internalType": "address",
          "name": "account",
          "type": "address"
        }
      ],
      "name": "renounceRole",
      "outputs": [],
      "stateMutability": "nonpayable",
      "type": "function"
    },
    {
      "inputs": [
        {
          "internalType": "string",
          "name": "datasetCid",
          "type": "string"
        },
        {
          "internalType": "address",
          "name": "licensee",
          "type": "address"
        }
      ],
      "name": "revokeLicense",
      "outputs": [],
      "stateMutability": "nonpayable",
      "type": "function"
    },
    {
      "inputs": [
        {
          "internalType": "bytes32",
          "name": "role",
          "type": "bytes32"
        },
        {
          "internalType": "address",
          "name": "account",
          "type": "address"
        }
      ],
      "name": "revokeRole",
      "outputs": [],
      "stateMutability": "nonpayable",
      "type": "function"
    },
    {
      "inputs": [
        {
          "internalType": "uint256",
          "name": "_platformFee",
          "type": "uint256"
        }
      ],
      "name": "setPlatformFee",
      "outputs": [],
      "stateMutability": "nonpayable",
      "type": "function"
    },
    {
      "inputs": [
        {
          "internalType": "bytes4",
          "name": "interfaceId",
          "type": "bytes4"
        }
      ],
      "name": "supportsInterface",
      "outputs": [
        {
          "internalType": "bool",
          "name": "",
          "type": "bool"
        }
      ],
      "stateMutability": "view",
      "type": "function"
    },
    {
      "inputs": [],
      "name": "token",
      "outputs": [
        {
          "internalType": "contract DatasetToken",
          "name": "",
          "type": "address"
        }
      ],
      "stateMutability": "view",
      "type": "function"
    },
    {
      "inputs": [],
      "name": "unpause",
      "outputs": [],
      "stateMutability": "nonpayable",
      "type": "function"
    },
    {
      "inputs": [
        {
          "internalType": "address",
          "name": "",
          "type": "address"
        },
        {
          "internalType": "string",
          "name": "",
          "type": "string"
        }
      ],
      "name": "userDatasetLicenses",
      "outputs": [
        {
          "internalType": "bytes32",
          "name": "",
          "type": "bytes32"
        }
      ],
      "stateMutability": "view",
      "type": "function"
    },
    {
      "inputs": [
        {
          "internalType": "address",
          "name": "",
          "type": "address"
        },
        {
          "internalType": "uint256",
          "name": "",
          "type": "uint256"
        }
      ],
      "name": "userLicenses",
      "outputs": [
        {
          "internalType": "bytes32",
          "name": "",
          "type": "bytes32"
        }
      ],
      "stateMutability": "view",
      "type": "function"
    }
  ],
  "bytecode": "0x608034620002e957601f6200231738819003918201601f191683019291906001600160401b03841183851017620002ee578160609284926040968752833981010312620002e957620000518162000304565b90602091836200006384840162000304565b92015160015490926001600160a01b039083821615620002a5571691821562000261576103e884116200021d576001600160a81b031990911660089190911b610100600160a81b031617600155600280546001600160a01b031916919091179055600355600080805280825282812033825282528281205460ff1615620001e5575b7fa49807205ce4d355092ef5a8a18f56e8913cf4a201fbe287825b095693c21775808252818352838220338352835260ff848320541615620001ab575b507f442a94f1a1fac79af32856af2a64f63648cfa2ef3b98610a5bb7cbec4cee698591828252818152838220338352815260ff84832054161562000170575b8351611fdd90816200031a8239f35b8282528181528382209033835252828120600160ff198254161790553391600080516020620022f7833981519152339280a438808062000161565b8082528183528382203383528352838220600160ff1982541617905533903390600080516020620022f78339815191528480a43862000122565b8080528082528281203382528252828120600160ff19825416179055333382600080516020620022f78339815191528180a4620000e5565b855162461bcd60e51b815260048101869052601560248201527f4665652063616e6e6f74206578636565642031302500000000000000000000006044820152606490fd5b855162461bcd60e51b815260048101869052601860248201527f496e76616c6964207265676973747279206164647265737300000000000000006044820152606490fd5b865162461bcd60e51b815260048101879052601560248201527f496e76616c696420746f6b656e206164647265737300000000000000000000006044820152606490fd5b600080fd5b634e487b7160e01b600052604160045260246000fd5b51906001600160a01b0382168203620002e95756fe608080604052600436101561001357600080fd5b600090813560e01c90816301ffc9a7146117c057508063062d3bd714611785578063091d27881461176757806312e8e2c31461157f57806314a8bd0d14611562578063248a9ca31461153657806326232a2e146115185780632f2ff15d1461146a5780632f61efe91461144e57806331745c5d146113d25780633610724e1461121257806336568abe1461117f5780633f4ba83a146110ea578063454c1d31146110945780635b7f415c146110785780635c975abb1461105557806374e078dc14610d3957806375a106c314610c8b57806375b238fc14610c505780637b10399914610c275780638456cb5914610bcd57806391d1485414610b82578063a217fddf14610b66578063ba810a4a14610ac1578063c5703e5e1461042c578063cde74e51146103af578063d547741f1461036f578063dd40222d1461018f5763fc0c546a1461016057600080fd5b3461018c578060031936011261018c5760015460405160089190911c6001600160a01b03168152602090f35b80fd5b503461018c5760208060031936011261036b5760043590811561032757600154604051636eb1769f60e11b815233600482015230602482015260089190911c6001600160a01b0316908281604481855afa801561031c57849186916102e7575b5010610225575b507fd77f6026a9a673fa73b17897e7995a1103bb5a14b6e6ff141f5a3d4eb835457c906040519283523392a280f35b60405163095ea7b360e01b8152306004820152602481018490529082908290604490829088905af19081156102dc5784916102a3575b501561026757386101f6565b6064906040519062461bcd60e51b825260048201526015602482015274151bdad95b88185c1c1c9bdd985b0819985a5b1959605a1b6044820152fd5b90508181813d83116102d5575b6102ba81836118a8565b810103126102d1576102cb90611e9c565b3861025b565b8380fd5b503d6102b0565b6040513d86823e3d90fd5b809250848092503d8311610315575b61030081836118a8565b8101031261031157839051386101ef565b8480fd5b503d6102f6565b6040513d87823e3d90fd5b6064906040519062461bcd60e51b82526004820152601d60248201527f416d6f756e74206d7573742062652067726561746572207468616e20300000006044820152fd5b5080fd5b503461018c57604036600319011261018c576103ac60043561038f611815565b90808452836020526103a76001604086200154611bfe565b611d08565b80f35b503461018c57602036600319011261018c576004803582526020526040902080546001600160a01b03166103e5600183016119a2565b9160028101549060ff600460038301549201541690610416604051958695865260a0602087015260a0860190611a48565b9260408501526060840152151560808301520390f35b50602036600319011261018c5767ffffffffffffffff600435818111610abd5761045a9036906004016118e6565b90610463611f1e565b6002546040516307eec9a760e21b8152602060048201526001600160a01b039291602490869083908616818061049b8682018b611a48565b03915afa928315610ab257868793889589918a908b92610a01575b506109b05761097757156109265733885260066020526040882060206040518092826104e88c8481519384920161192d565b82019081520301902054801590811561090b575b50156108ce578780808093893491165af1610515611eee565b501561088a57868560025416803b1561036b57604080516316b9757f60e21b815260048101919091529082908290818381610553604482018f611a48565b338b83015203925af1801561087f57610867575b505060405160208101903360601b82526105a76054828a51610591818d602060348601910161192d565b81014260348201520360348101845201826118a8565b519020946301e133804201421161085457604051916105c583611870565b338352602083018881524260408501526301e133804201606085015260016080850152878a52600460205260408a20928451166bffffffffffffffffffffffff60a01b845416178355518051918211610841576106256001840154611968565b601f81116107fc575b50602090601f831160011461078d579180608094926004948d92610782575b50508160011b916000199060031b1c19161760018201555b604084015160028201556060840151600382015501910151151560ff8019835416911617905533865260056020526040862080549168010000000000000000831015610770575061075a926106e58361074c9360017f0f7a6a93cc87f3c3ddcee49509d83978b1d5c57288095fd0b07e6ab7ae6a8c929896018155611950565b81549060031b9088821b91600019901b191617905533885260066020528560408920602060405180928261071f8d8481519384920161192d565b8201908152030190205561073e60405197608089526080890190611a48565b908782036020890152611a48565b908582036040870152611a48565b926301e13380420160608201528033940390a380f35b634e487b7160e01b8852604160045287fd5b01519050388061064d565b600184018b5260208b209190601f1984168c5b8181106107e4575092600192859260049660809896106107cb575b505050811b016001820155610665565b015160001960f88460031b161c191690553880806107bb565b929360206001819287860151815501950193016107a0565b600184018b5260208b20601f840160051c81016020851061083a575b601f830160051c8201811061082e57505061062e565b60008155600101610818565b5080610818565b634e487b7160e01b8a526041600452848afd5b634e487b7160e01b885260116004528288fd5b61087090611846565b61087b578638610567565b8680fd5b6040513d84823e3d90fd5b60405162461bcd60e51b8152602060048201526017818401527f5061796d656e7420746f206f776e6572206661696c65640000000000000000006044820152606490fd5b60405162461bcd60e51b815260206004820152601681850152754c6963656e736520616c72656164792061637469766560501b6044820152606490fd5b90508852600460205260ff600460408a2001541615386104fc565b60405162461bcd60e51b8152602060048201528084018490527f44617461736574207072696365206d75737420626520677265617465722074686044820152630616e20360e41b6064820152608490fd5b60405162461bcd60e51b8152602060048201526012818601527111185d185cd95d081a5cc81c995b5bdd995960721b6044820152606490fd5b60405162461bcd60e51b8152602060048201528086018690527f44617461736574206973207075626c69632c206e6f206c6963656e7365206e656044820152631959195960e21b6064820152608490fd5b96505050505092503d8087843e610a1881846118a8565b8201926101008385031261087b578251938585168503610aae576020840151828111610aaa5781610a4a918601611ea9565b506040840151828111610aaa5781610a63918601611ea9565b90606085015190838211610aa657610a7c918601611ea9565b93608081015195610a9b60c0610a9460a08501611e9c565b9301611e9c565b9092959691386104b6565b8980fd5b8880fd5b8780fd5b6040513d88823e3d90fd5b8280fd5b503461018c57602036600319011261018c5760806020916040600435918281526004855260018060a01b0392610afd8484842054161515611f62565b815260048552209060405190610b1282611870565b8254168152610b23600183016119a2565b848201526002820154604082015260ff60046003840154938460608501520154161515928391015281610b5c575b506040519015158152f35b9050421038610b51565b503461018c578060031936011261018c57602090604051908152f35b503461018c57604036600319011261018c576040610b9e611815565b91600435815280602052209060018060a01b0316600052602052602060ff604060002054166040519015158152f35b503461018c578060031936011261018c57610be6611a6d565b610bee611f1e565b600160ff19815416176001557f62e78cea01bee320cd4e420270b5ea74000d11b0c9f74754ebdbfc544b05a2586020604051338152a180f35b503461018c578060031936011261018c576002546040516001600160a01b039091168152602090f35b503461018c578060031936011261018c5760206040517fa49807205ce4d355092ef5a8a18f56e8913cf4a201fbe287825b095693c217758152f35b503461018c5760208060031936011261036b576001600160a01b03610cae611830565b168252600581526040822060405192838383549182815201908193835284832090835b818110610d255750505084610ce79103856118a8565b60405193838594850191818652518092526040850193925b828110610d0e57505050500390f35b835185528695509381019392810192600101610cff565b825484529286019260019283019201610cd1565b503461018c57604036600319011261018c5760043567ffffffffffffffff811161036b57610d6b9036906004016118e6565b610d73611815565b3360009081527f335573aa7cafba10a32e2694464d1e7e5294d917876d04d506249fbf84d791af6020908152604090912054909291907f442a94f1a1fac79af32856af2a64f63648cfa2ef3b98610a5bb7cbec4cee69859060ff1615610eaf5750610e09918391610de2611f1e565b6001600160a01b03168552600682526040808620905182519094859382908590870161192d565b8201908152030190205490610e1f821515611f62565b8183526004815260ff60046040852001541615610e7357600490828452526004604083200160ff1981541690557f0cddff7d26fb450c5bd6fa66ef9bd79abd5f2424333c0381532898b0ef59638c8280a280f35b6064906040519062461bcd60e51b8252600482015260156024820152744c6963656e7365206973206e6f742061637469766560581b6044820152fd5b83610eb933611d8d565b91604051610ec68161188c565b6042815282810191606036843781511561103f5760308353815160019081101561103f57607860218401536041905b808211610fe5575050610fa257610f6e93610f7d9260489260405196879376020b1b1b2b9b9a1b7b73a3937b61d1030b1b1b7bab73a1604d1b88860152610f45815180928a60378901910161192d565b8401917001034b99036b4b9b9b4b733903937b6329607d1b60378401525180938684019061192d565b010360288101855201836118a8565b610f9e60405192839262461bcd60e51b845260048401526024830190611a48565b0390fd5b6064836040519062461bcd60e51b825280600483015260248201527f537472696e67733a20686578206c656e67746820696e73756666696369656e746044820152fd5b9091600f8116601081101561103f576f181899199a1a9b1b9c1cb0b131b232b360811b901a6110148486611d7c565b5360041c918015611029576000190190610ef5565b634e487b7160e01b600052601160045260246000fd5b634e487b7160e01b600052603260045260246000fd5b503461018c578060031936011261018c57602060ff600154166040519015158152f35b503461018c578060031936011261018c57602060405160088152f35b503461018c57604036600319011261018c576110ae611830565b6001600160a01b031681526005602052604081208054602435929083101561018c5760206110dc8484611950565b90546040519160031b1c8152f35b503461018c578060031936011261018c57611103611a6d565b60015460ff8116156111435760ff19166001557f5db9ee0a495bf2e6ff9c91a7834c1ba4fdd244a5e8aa4e537bd38aeae4b073aa6020604051338152a180f35b60405162461bcd60e51b815260206004820152601460248201527314185d5cd8589b194e881b9bdd081c185d5cd95960621b6044820152606490fd5b503461018c57604036600319011261018c57611199611815565b336001600160a01b038216036111b5576103ac90600435611d08565b60405162461bcd60e51b815260206004820152602f60248201527f416363657373436f6e74726f6c3a2063616e206f6e6c792072656e6f756e636560448201526e103937b632b9903337b91039b2b63360891b6064820152608490fd5b50602036600319011261018c5760043561122a611f1e565b8015611381576103e88104908134106113435760015460081c6001600160a01b0316803b156102d1576040516340c10f1960e01b8152336004820152602481018390529084908290604490829084905af180156102dc57611330575b508134116112c3575b60405191825260208201527f8fafebcaf9d154343dad25669bfa277f4fbacd7ac6b0c4fed522580e040a0f3360403392a280f35b81340334811161131c578380808093335af16112dd611eee565b5061128f5760405162461bcd60e51b815260206004820152601260248201527112109054881c99599d5b990819985a5b195960721b6044820152606490fd5b634e487b7160e01b84526011600452602484fd5b61133c90939193611846565b9138611286565b60405162461bcd60e51b8152602060048201526016602482015275125b9cdd59999a58da595b9d0812109054881cd95b9d60521b6044820152606490fd5b60405162461bcd60e51b815260206004820152602360248201527f546f6b656e20616d6f756e74206d75737420626520677265617465722074686160448201526206e20360ec1b6064820152608490fd5b503461018c57604036600319011261018c576113ec611830565b60243567ffffffffffffffff8111610abd5761143c916040602094611416869436906004016118e6565b6001600160a01b039093168152600684522060405182519094859382908590870161192d565b82019081520301902054604051908152f35b503461018c578060031936011261018c57602060405160128152f35b503461018c57604036600319011261018c57600435611487611815565b8183528260205261149e6001604085200154611bfe565b818352602083815260408085206001600160a01b039093168086529290915283205460ff16156114cc578280f35b818352826020526040832081845260205260408320600160ff1982541617905533917f2f8788117e7eff1d82e926ec794901d17c78024a50270940304540a733656f0d8480a438808280f35b503461018c578060031936011261018c576020600354604051908152f35b503461018c57602036600319011261018c57600160406020926004358152808452200154604051908152f35b503461018c578060031936011261018c5760206040516103e88152f35b503461018c5760208060031936011261036b576004357fa49807205ce4d355092ef5a8a18f56e8913cf4a201fbe287825b095693c2177580845283835260408420338552835260ff6040852054161561164a57506103e8811161160d5790817f45610d581145924dd7090a5017e5f2b1d6f42213bb2e95707ff86846bbfcb1ca92600355604051908152a180f35b60405162461bcd60e51b81526004810183905260156024820152744665652063616e6e6f74206578636565642031302560581b6044820152606490fd5b828461165533611d8d565b92604051906116638261188c565b6042825283820192606036853782511561175357603084538251906001918210156117535790607860218501536041915b8183116116e557505050610fa257610f6e93610f7d9260489260405196879376020b1b1b2b9b9a1b7b73a3937b61d1030b1b1b7bab73a1604d1b88860152610f45815180928a60378901910161192d565b909192600f8116601081101561173f576f181899199a1a9b1b9c1cb0b131b232b360811b901a6117158587611d7c565b5360041c92801561172b57600019019190611694565b634e487b7160e01b82526011600452602482fd5b634e487b7160e01b83526032600452602483fd5b634e487b7160e01b81526032600452602490fd5b503461018c578060031936011261018c5760206040516207a1208152f35b503461018c578060031936011261018c5760206040517f442a94f1a1fac79af32856af2a64f63648cfa2ef3b98610a5bb7cbec4cee69858152f35b90503461036b57602036600319011261036b5760043563ffffffff60e01b8116809103610abd5760209250637965db0b60e01b8114908115611804575b5015158152f35b6301ffc9a760e01b149050386117fd565b602435906001600160a01b038216820361182b57565b600080fd5b600435906001600160a01b038216820361182b57565b67ffffffffffffffff811161185a57604052565b634e487b7160e01b600052604160045260246000fd5b60a0810190811067ffffffffffffffff82111761185a57604052565b6080810190811067ffffffffffffffff82111761185a57604052565b90601f8019910116810190811067ffffffffffffffff82111761185a57604052565b67ffffffffffffffff811161185a57601f01601f191660200190565b81601f8201121561182b578035906118fd826118ca565b9261190b60405194856118a8565b8284526020838301011161182b57816000926020809301838601378301015290565b60005b8381106119405750506000910152565b8181015183820152602001611930565b805482101561103f5760005260206000200190600090565b90600182811c92168015611998575b602083101461198257565b634e487b7160e01b600052602260045260246000fd5b91607f1691611977565b90604051918260008254926119b684611968565b908184526001948581169081600014611a2557506001146119e2575b50506119e0925003836118a8565b565b9093915060005260209081600020936000915b818310611a0d5750506119e0935082010138806119d2565b855488840185015294850194879450918301916119f5565b9150506119e094506020925060ff191682840152151560051b82010138806119d2565b90602091611a618151809281855285808601910161192d565b601f01601f1916010190565b3360009081527fad3228b676f7d3cd4284a5443f17f1962b36e491b30a40b2405849e597ba5fb5602090815260408083205490929060ff1615611aaf57505050565b611ab833611d8d565b9080845190611ac68261188c565b6042825284820192606036853782511561175357603084538251906001918210156117535790607860218501536041915b818311611bb857505050611b76576048610f9e938693611b5a93611b4b985198899376020b1b1b2b9b9a1b7b73a3937b61d1030b1b1b7bab73a1604d1b8a860152610f45815180928c60378901910161192d565b010360288101875201856118a8565b5192839262461bcd60e51b845260048401526024830190611a48565b60648486519062461bcd60e51b825280600483015260248201527f537472696e67733a20686578206c656e67746820696e73756666696369656e746044820152fd5b909192600f8116601081101561173f576f181899199a1a9b1b9c1cb0b131b232b360811b901a611be88587611d7c565b5360041c92801561172b57600019019190611af7565b600090808252602090828252604092838120338252835260ff848220541615611c275750505050565b611c3033611d8d565b91845190611c3d8261188c565b6042825284820192606036853782511561175357603084538251906001918210156117535790607860218501536041915b818311611cc257505050611b76576048610f9e938693611b5a93611b4b985198899376020b1b1b2b9b9a1b7b73a3937b61d1030b1b1b7bab73a1604d1b8a860152610f45815180928c60378901910161192d565b909192600f8116601081101561173f576f181899199a1a9b1b9c1cb0b131b232b360811b901a611cf28587611d7c565b5360041c92801561172b57600019019190611c6e565b9060009180835282602052604083209160018060a01b03169182845260205260ff604084205416611d3857505050565b80835282602052604083208284526020526040832060ff1981541690557ff6391f5c32d9c69d2a47ea670b442974b53935d1edc7fd64eb21e047a839171b339380a4565b90815181101561103f570160200190565b604051906060820182811067ffffffffffffffff82111761185a57604052602a825260208201604036823782511561103f5760309053815160019081101561103f57607860218401536029905b808211611e2e575050611dea5790565b606460405162461bcd60e51b815260206004820152602060248201527f537472696e67733a20686578206c656e67746820696e73756666696369656e746044820152fd5b9091600f81166010811015611e87576f181899199a1a9b1b9c1cb0b131b232b360811b901a611e5d8486611d7c565b5360041c918015611e72576000190190611dda565b60246000634e487b7160e01b81526011600452fd5b60246000634e487b7160e01b81526032600452fd5b5190811515820361182b57565b81601f8201121561182b578051611ebf816118ca565b92611ecd60405194856118a8565b8184526020828401011161182b57611eeb916020808501910161192d565b90565b3d15611f19573d90611eff826118ca565b91611f0d60405193846118a8565b82523d6000602084013e565b606090565b60ff60015416611f2a57565b60405162461bcd60e51b815260206004820152601060248201526f14185d5cd8589b194e881c185d5cd95960821b6044820152606490fd5b15611f6957565b60405162461bcd60e51b8152602060048201526016602482015275131a58d95b9cd948191bd95cc81b9bdd08195e1a5cdd60521b6044820152606490fdfea26469706673582212200b04ded77ef45a55a7397932e4df6611b77eaa5be85236da1be2eca17bd9497564736f6c634300081300332f8788117e7eff1d82e926ec794901d17c78024a50270940304540a733656f0d",
  "linkReferences": {},
  "deployedLinkReferences": {}
}